:100000000EC01DC01CC0B1C31AC019C018C017C093
:1000100016C015C014C013C012C011C010C01124E6
:100020001FBECFE5D1E0DEBFCDBF10E0A0E6B0E05F
:1000300001C01D92A236B107E1F789D218C4E0CF02
:10004000582F90E840E020E030E0C298892F8523C7
:1000500011F0C09A01C0C098B199492BC29A2F5F84
:100060003F4F2830310511F09695EFCF842F08953A
:100070006F927F928F929F92AF92BF92CF92DF92B8
:100080000F93DF93CF9300D000D0CDB7DEB7082F0A
:1000900039014A01C29A882311F4C39803C0813000
:1000A00009F4C498862F8068CBDFDD2497FCDA94AE
:1000B000C92CB82CA72CC401BB2797FDB095AB2F3A
:1000C00089839A83AB83BC83892DBB2787FDB09539
:1000D0009B2FAB2FB5DF8981B3DF8A2DB1DF862D52
:1000E000AFDF002311F4C39A03C0013009F4C49AAE
:1000F0000F900F900F900F90CF91DF910F91DF90A5
:10010000CF90BF90AF909F908F907F906F90089509
:10011000EF92FF920F931F93182FC29A882311F426
:10012000C39803C0813009F4C498862F8F7788DF85
:1001300080E086DFE82E80E083DFF82E80E080DF3D
:10014000082F80E07DDF682F112311F4C39A03C0CC
:10015000113009F4C49A2E2D30E040E050E0542FC5
:10016000432F322F22278F2D90E0A0E0B0E0282BE4
:10017000392B4A2B5B2B542F432F322F2227802FD2
:1001800090E0A0E0B0E0282B392B4A2B5B2B542FBA
:10019000432F322F2227862F90E0A0E0B0E0282BBB
:1001A000392B4A2B5B2BB901CA011F910F91FF908C
:1001B000EF9008951F93182F6BE122E330E042E0A7
:1001C00050E056DF812F67E120E030E040E050E072
:1001D0004FDF812F6AE127E030E040E050E048DF68
:1001E000812F68E12FE93FE040E050E041DF812FBF
:1001F00069E128E038E040E050E03ADF812F64E038
:1002000020E130E040E150E033DF812F65E020E085
:1002100030E040E050E22CDF812F66E020E030E06B
:1002200040E050E025DF812F67E020E430E043E448
:1002300050E01EDF812F69E02CEA32E840E051E017
:1002400017DF812F68E026E832E840E051E010DF58
:10025000812F6AE020E031E040E058E109DF812FA2
:1002600065E220E030E040E050E002DF812F66E20E
:1002700020E030E840E050E0FBDE812F68E220E043
:1002800030E040E050E0F4DE812F69E220E030E031
:1002900040E050E0EDDE812F60E529E030E040E015
:1002A00050E0E6DE812F61E529E030E040E050E0FB
:1002B000DFDE812F6DE52FEF3FE740E050E0D8DE35
:1002C000812F6EE528EB3BE040E050E0D1DE812F4E
:1002D00060E624E630E040E050E0CADE812F64E5CD
:1002E00020E43FE148E853E1C3DE812F66E520E4E6
:1002F0003FE148E853E1BCDE812F68E528EE35E0B8
:1003000040E155E2B5DE812F6AE520E030E040E4CF
:1003100051E0AEDE1F910895DF92EF92FF920F93AE
:100320001F93D82E63E628E030E040E050E0A0DEE6
:100330008D2D69E220E030E040E050E099DE8D2D27
:1003400062E521E030E040E050E092DE8D2D6CE18E
:1003500020E030E040E050E08BDE8D2D64E220E7CD
:1003600037E140E050E084DE8D2D6BE620E030E0A8
:1003700040E050E07DDE8D2D67E220E030E040E09F
:1003800050E076DE8D2D67E2C3DE611571058105D3
:10039000910589F78D2D62E523E030E040E050E0E3
:1003A00067DE8D2D63E622E030E040E050E060DE65
:1003B0008D2D66E62AE030E040E050E059DE8D2DDC
:1003C0006AE220E030E040E050E052DE8D2D65E250
:1003D00020E030E040E050E04BDE8D2D66E624E189
:1003E00030E040E050E044DE8D2D68E220E030E077
:1003F00040E050E03DDE8D2D68E28ADE611571053A
:100400008105910589F78D2D66E62EE130E040E00B
:1004100050E02EDE8D2D68E27BDE7B018C018D2D80
:100420006BE620E030E040E050E022DEE114F10431
:100430000105110579F38D2D66E628E230E040E0F4
:1004400050E016DEDD2029F020EE34EC40E050E0F4
:1004500004C02EE13FEA40E050E08D2D68E608DE62
:100460008D2D63E623E030E040E050E001DE1F9197
:100470000F91FF90EF90DF900895AF92BF92CF92CF
:10048000DF92EF92FF920F931F93DF93CF93CDB73D
:10049000DEB7E0E0621B730B840B950B97FF07C080
:1004A00090958095709561957F4F8F4F9F4FA616C1
:1004B000B706C806D9060CF0E1E060E0C701D80134
:1004C0009C01AD0157FF07C050954095309521958F
:1004D0003F4F4F4F5F4F8D859E85AF85B8898217FF
:1004E0009307A407B5070CF061E08E2F8623CF9108
:1004F000DF911F910F91FF90EF90DF90CF90BF9011
:10050000AF900895AF92BF92CF92DF92EF92FF9299
:100510000F931F938C0150D15C01CC24DD24780112
:1005200000E010E049D1A0E0B0E08A199B09AC09D5
:10053000BD098E159F05A007B107A0F31F910F916C
:10054000FF90EF90DF90CF90BF90AF9008954F92C3
:100550005F926F927F928F929F92AF92BF92CF9253
:10056000DF92EF92FF920F931F93CF93DF938DE172
:1005700087BBC39AC49A10D1789488EE93E0C2DF07
:1005800080E060E0C5DD80E015DE80E0C5DE80EA69
:100590009FE0B8DF81E060E0BBDD81E00BDE81E061
:1005A000BBDE88EE93E0AEDF44245524C0E0D0E00B
:1005B0004EE1642E4FEA742E812C912C30EEA32E46
:1005C00034ECB32EC12CD12C209709F043C080E02D
:1005D0006BE69EDD7B018C0180E06AE699DDA4017B
:1005E00093012E193F09400B510B57FF07C050953F
:1005F0004095309521953F4F4F4F5F4F2536310540
:100600004105510524F7AC01CB01DA01B7FF07C062
:10061000B095A095909581959F4FAF4FBF4F45974F
:10062000A105B105A4F6C201AA2797FDA095BA2F8E
:100630006C01BB24AA2480EE94ECA0E0B0E0A80EEC
:10064000B91ECA1EDB1E81E068E6A601950110DD19
:10065000C1E0D0E081E06BE65BDD7B018C0181E0F5
:100660006AE656DDA60195012E193F09400B510B94
:1006700057FF07C050954095309521953F4F4F4FFC
:100680005F4F25363105410551050CF09DCFAC017A
:10069000CB01DA01B7FF07C0B095A0959095819581
:1006A0009F4FAF4FBF4F4597A105B1050CF08CCFC1
:1006B00080E063E021E030E040E050E0D9DC80E021
:1006C00062E026DD9B01AC01BA0188279927685BAF
:1006D00078488040904097FF05C060E070E080E07F
:1006E00090E00CC0693CA2E37A07A0E08A07A0E092
:1006F0009A0724F068EC72E380E090E02FE230E0AB
:1007000040E050E05ED02AE832E040E050E072D0B5
:1007100079018A018CE390E0A0E0B0E0E80EF91ED8
:100720000A1F1B1F80E060E6A8019701A1DC81E0A1
:1007300060E6A80197019CDCC201AA2797FDA0955D
:10074000BA2F4C01772466248EE19FEAA0E0B0E046
:10075000680E791E8A1E9B1E80E068E6A401930144
:1007600087DC0894411C511C32CF1F920F920FB6A8
:100770000F9211248F939F9380916000909161005C
:10078000019690936100809360009F918F910F90EC
:100790000FBE0F901F90189580B7826080BF80B702
:1007A000826080BF85E98EBD89B7806489BF109261
:1007B0006100109260000895809160009091610046
:1007C0000895FF27EE27BB27AA2760FF04C0A20FCA
:1007D000B31FE41FF51F220F331F441F551F9695AB
:1007E00087957795679589F70097760771F7CF0119
:1007F000BD01089597FB092E05260ED057FD04D0A4
:1008000014D00AD0001C38F45095409530952195AD
:100810003F4F4F4F5F4F0895F6F790958095709535
:1008200061957F4F8F4F9F4F0895A1E21A2EAA1B0B
:10083000BB1BFD010DC0AA1FBB1FEE1FFF1FA21790
:10084000B307E407F50720F0A21BB30BE40BF50B8D
:10085000661F771F881F991F1A9469F76095709516
:10086000809590959B01AC01BD01CF010895F8944E
:02087000FFCFB8
:00000001FF
